:100000000C949C000C94B9000C94B9000C94B900A9
:100010000C94B9000C94B9000C94B9000C94B9007C
:100020000C94B9000C94B9000C945B030C942E044E
:100030000C94B9000C94B9000C94B9000C94B9005C
:100040000C94EB000C94B9000C94B9000C94B9001A
:100050000C94CE000C94B9000C94B9000C94B90027
:100060000C94B9000C94B9000C94B9000C94B9002C
:100070000C94B9000C94B9000C94B9000C94B9001C
:100080000C94B9000C94B9000C94B9000C94B9000C
:100090000C94B9000C94B9000C94B9000C94B900FC
:1000A0000C94B9000C94B9000C94B9001C034C00DA
:1000B000550046004100200043004400430020005A
:1000C000440065006D006F000000180344006500E7
:1000D00061006E002000430061006D006500720049
:1000E000610000000403090409023E00020100C08F
:1000F000320904000001020201000524001001047D
:100100002402060524060001070582030800FF09F2
:10011000040100020A0000000705040210000507A0
:100120000583021000051201100102000008EB0314
:10013000442001000102DC0111241FBECFEFDAE0F0
:10014000DEBFCDBF11E0A0E0B1E0EAE6FAE202C016
:1001500005900D92AA39B107D9F721E0AAE9B1E0DB
:1001600001C01D92A53CB207E1F70E944F020C941A
:1001700033150C940000579AEFEBF0E083E0808396
:100180008FEF8093D10082E080831092D20089E0CB
:100190008093C20081E08093C10008951F921FB632
:1001A0001F9211248F939F9380919B01811569F079
:1001B00080919A01811109C08091A0019091A101C3
:1001C00001969093A1018093A0019F918F911F9020
:1001D0001FBE1F9018951F921FB61F9211242F93B8
:1001E0008F939F93809186009091870020919B012F
:1001F000211112C090939F0180939E011092A10142
:100200001092A00181E080939B019F918F912F918B
:100210001F901FBE1F90189520919A012111F5CFB4
:1002200090939D0180939C0181E080939A01EDCF92
:100230001092800081E48093810081E280936F00BE
:1002400010928500109284000895F89410929A01FB
:1002500010929B011092A1011092A00178948091BC
:100260009A018115E1F3F89440919E0150919F010C
:1002700020919C0130919D016091A0017091A1019C
:10028000789480E090E0CB0177276627241B350B1C
:10029000620F731F811D911D0895209A289AFFCF28
:1002A000CF92DF92EF92FF92CF93DF93EC01C88061
:1002B000D980EA80FB8020E030E04AE754E4C701BF
:1002C000B6010E948E1118167CF480E090E0AAE737
:1002D000B4E488839983AA83BB83DF91CF91FF9095
:1002E000EF90DF90CF90089520E030E04AE754ECA3
:1002F000C701B6010E94141187FFEFCF80E090E0A4
:10030000AAE7B4ECE6CFCF92DF92EF92FF920F9381
:100310001F93CF93DF9369017A016091A6017091D9
:10032000A7018091A8019091A9010E94A810609353
:10033000A6017093A7018093A8019093A90186EA72
:1003400091E00E9450012AE939E949E95FE36091AF
:10035000A6017091A7018091A8019091A9010E9426
:1003600093118B01D82FC92F2AE939E949E95FE3B5
:10037000B601C7010E9493119B01AC01B8018D2FFA
:100380009C2F0E94A8108B01D82FC92F2091A20169
:100390003091A3014091A4015091A501B601C7017C
:1003A0000E94A7102AE037ED43E25CE30E9493111C
:1003B0009B01AC01B8018D2F9C2F0E94A8108B01CE
:1003C000D82FC92F20E030E048E452E4FE01712F1D
:1003D0008F2F9E2F0E948E1118164CF120E030E0D6
:1003E00048E452ECFE01602F712F8F2F9E2F0E9448
:1003F000141187FF04C000E010E0D8E4C2ECC6018D
:10040000D7018093A2019093A301A093A401B0937C
:10041000A5019E01602F712F832F9C2FDF91CF911B
:100420001F910F91FF90EF90DF90CF90089500E023
:1004300010E0D8E4C2E4E3CF0F931F93CF93DF9390
:100440008B01D82FC92F20E030E048E452E4FE01B0
:10045000712F8F2F9E2F0E948E111816DCF020E036
:1004600030E048E452ECFE01602F712F8F2F9E2F59
:100470000E94141187FF04C000E010E0D8E4C2EC31
:100480009E01602F712F832F9C2FDF91CF911F91A1
:100490000F91089500E010E0D8E4C2E4F1CF0E948B
:1004A000B6026AEA71E080E091E00E949D070E9436
:1004B000BB0054980E941801789488EE482E83E07F
:1004C000582E612C712C03E711E0CAEAD1E09FE3BA
:1004D000A92E91E0B92E0E9425016B017C011C140C
:1004E0001D041E041F04CCF0FF928F93DF926F93C4
:1004F000BF92AF92DF93CF930E9441128DB79EB708
:1005000008960FB6F8949EBF0FBE8DBF80E091E0B5
:100510000E94BF060E94D705DECF60E074E284EF40
:1005200090E0A70196010E940012CA01B901A3013F
:1005300092010E9400129F938F937F936F935F931A
:100540004F933F932F93FF92EF92DF92CF921F939F
:100550000F93DF93CF930E9441128DB79EB74096C1
:100560000FB6F8949EBF0FBE8DBFD0CF84B7877FE4
:1005700084BF0FB6F894A89580916000886180933D
:100580006000109260000FBE80E890E00FB6F89413
:1005900080936100909361000FBE0C943D0380E056
:1005A00091E00E94F10590E6811101C090E98BB1C4
:1005B0008F70892B8BB9089580E091E00C94C0076F
:1005C0000E944E030E945603E0EEF0E080818160BD
:1005D0008083E8EDF0E080818F77808319BCA7ED00
:1005E000B0E08C918E7F8C9380818F7E808310927F
:1005F000C40108950F931F93CF93DF930E944E037E
:100600000E945603C8EDD0E088818F778883888167
:100610008068888388818F7D888319BC1092BB0194
:100620001092BA011092B8011092B90100EE10E0D8
:10063000F80180818B7F808388818160888342E09C
:1006400060E080E00E94D20FE1EEF0E080818E7FDA
:100650008083E2EEF0E08081816080838081886029
:100660008083F80180818E7F808388818061888388
:10067000DF91CF911F910F910895E8EDF0E0808117
:100680008F7E8083E7EDF0E080818160808384E06D
:1006900082BF81E08093C4010C94FA02E8EDF0E09F
:1006A00080818E7F80831092E20008951092DA009C
:1006B0001092E10008951F920F920FB60F9211242D
:1006C0002F933F934F935F936F937F938F939F935A
:1006D000AF93BF93EF93FF938091E10082FF0BC034
:1006E0008091E20082FF07C08091E1008B7F8093C0
:1006F000E1000E94D6058091DA0080FF19C0809148
:10070000D80080FF15C08091DA008E7F8093DA00D8
:100710008091D90080FF94C080E189BD82E189BDCC
:1007200009B400FEFDCF81E08093BB010E94D60595
:100730008091E10080FF19C08091E20080FF15C028
:100740008091E2008E7F8093E2008091E2008061E0
:100750008093E2008091D80080628093D80019BC19
:1007600085E08093BB010E94D6058091E10084FF63
:1007700029C08091E20084FF25C080E189BD82E12B
:1007800089BD09B400FEFDCF8091D8008F7D809394
:10079000D8008091E1008F7E8093E1008091E2009B
:1007A0008F7E8093E2008091E20081608093E2007E
:1007B0008091BA01811509F449C084E08093BB019E
:1007C0000E94D6058091E10083FF29C08091E2005C
:1007D00083FF25C08091E100877F8093E10082E064
:1007E0008093BB011092BA018091E1008E7F8093CB
:1007F000E1008091E2008E7F8093E2008091E20030
:1008000080618093E20042E060E080E00E94D20FCD
:100810008091F00088608093F0000E94D605FF91DF
:10082000EF91BF91AF919F918F917F916F915F9168
:100830004F913F912F910F900FBE0F901F901895E1
:1008400019BC1092BB010E94D60572CF8091E300C3
:1008500087FF02C083E0B2CF81E0B0CF1F920F923A
:100860000FB60F921124EF92FF920F931F932F93C5
:100870003F934F935F936F937F938F939F93AF9328
:10088000BF93CF93EF93FF9309EE10E0F8018081BF
:10089000C091EC008F70C795CC27C795C82B1082EC
:1008A00080EFE82EF12CF7018081877F8083789498
:1008B0000E947904F8011082F701808188608083AA
:1008C000CF70F801C083FF91EF91CF91BF91AF91AD
:1008D0009F918F917F916F915F914F913F912F9158
:1008E0001F910F91FF90EF900F900FBE0F901F90F0
:1008F00018951F93CF93DF93CDB7DEB7AA970FB6A6
:10090000F894DEBF0FBECDBF8CEB91E0FC010196E9
:100910002091F100208321E0843C9207B9F70E94E6
:10092000DC028091E80083FF10C08091BC019091AF
:10093000BD01953009F4D4C000F5292F2D7F213059
:1009400009F486C0911509F45EC08091E80083FF28
:100950000AC08091E800877F8093E8008091EB00D7
:1009600080628093EB00AA960FB6F894DEBF0FBEAC
:10097000CDBFDF91CF911F910895983009F4E9C060
:10098000993009F4F3C0963001F780588230E8F6C8
:100990008091BE019091BF018C3D53E0950709F015
:1009A000C3C083E08A838AE289834FB7F894DE016B
:1009B000139620E03EE051E2E32FF0E05093570021
:1009C000849120FF03C082958F703F5F8F708A30C3
:1009D00008F4A8C0895C90E08D939D932F5F24312B
:1009E00059F74FBF8091E800877F8093E8006AE263
:1009F00070E0CE0101960E94660C8091E8008B7732
:100A00008093E800A2CF803881F0823809F09DCF32
:100A10008091C0018F708093E9008091EB0085FB8D
:100A2000882780F91092E90006C08091B801880FEC
:100A30009091B901892B9091E800977F9093E800FD
:100A40008093F1001092F1008091E8008E771AC037
:100A500081110CC08091BE01813009F076CF81E018
:100A6000933009F080E08093B80107C0823009F02C
:100A70006CCF8091BE01811551F01092E9008091F8
:100A8000E800877F8093E8000E9457105ECF809136
:100A9000C0018F70811509F458CF8093E90020912F
:100AA000EB0020FFEACF933031F48091EB008062BD
:100AB0008093EB00E2CF9091EB0090619093EB007C
:100AC00021E030E0A90102C0440F551F8A95E2F7EA
:100AD0004093EA001092EA008091EB008860E8CF32
:100AE000811133CF1091BE011F778091E300807890
:100AF000812B8093E3008091E800877F8093E8005A
:100B00000E9457108091E80080FFFCCF8091E300A5
:100B100080688093E30083E0111101C082E080933C
:100B2000BB0113CF805D57CFAE014F5F5F4F609128
:100B3000C0010E947208BC01892B09F406CF809184
:100B4000E800877F8093E80089819A810E94A30D45
:100B500054CF803809F0F9CE8091E800877F8093E8
:100B6000E8008091BA018093F1006ECF8111EDCE43
:100B70009091BE01923008F0E8CE8091E800877F26
:100B80008093E8009093BA010E9457108091BA01B7
:100B9000811531F084E08093BB010E94CF02D5CE55
:100BA0008091E30087FDF6CF81E0F5CF0895CF93E4
:100BB0008091BB01811599F08091E900C091EC0012
:100BC0008F70C795CC27C795C82B1092E9008091EC
:100BD000E80083FD0E947904CF70C093E900CF91B3
:100BE0000895CF93DF93EC01FC0170968BE0DF0159
:100BF0001D928A95E9F782E08C83898783E08E874E
:100C000061E0CE0101960E940610811571F061E04D
:100C1000CE0106960E940610811539F061E0CE01E2
:100C20000B96DF91CF910C94061080E0DF91CF916D
:100C30000895FC01CB012091BB012430C1F444890B
:100C4000558966897789452B462B472B81F0218171
:100C50002F702093E900FC0101900020E9F7319703
:100C6000BF01681B790B40E050E00C942D0982E035
:100C700008950F931F93FC01CB01BA012091BB0192
:100C8000243091F40489158926893789012B022B98
:100C9000032B51F021812F702093E90040E050E0B8
:100CA0001F910F910C942D0982E01F910F910895CF
:100CB000CF93FC01C62F8091BB018430F9F4848965
:100CC0009589A689B789892B8A2B8B2BB9F08181CD
:100CD0008F708093E9008091E80085FF05C0C09384
:100CE000F10080E0CF9108958091E8008E778093A5
:100CF000E8000E947610811591F3F4CF82E0F2CFE4
:100D0000FB01682F848595850E94580621E030E01C
:100D1000811102C020E030E088279927821B930BC5
:100D20000895FC018091BB01843039F5848995894F
:100D3000A689B789892B8A2B8B2BF9F081818F703B
:100D40008093E9009091F3008091F200892B11F4D7
:100D500080E008959091E8008091E8008E7780937C
:100D6000E80095FDF5CF0E947610811107C09091A3
:100D7000E8009E779093E800089582E00895FC01D2
:100D80008091BB01843099F484899589A689B789BB
:100D9000892B8A2B8B2B59F081818F708093E900EE
:100DA0008091E80080FF03C0CF010C949106089564
:100DB000FC018091BB018430D9F484899589A6898E
:100DC000B789892B8A2B8B2B99F086818F70809322
:100DD000E9008091E80082FF0BC09091F3008091C0
:100DE000F200892B41F48091E8008B778093E80032
:100DF00080E090E008959091F3008091F2000895D2
:100E0000FC018091BB01843019F08FEF9FEF0895B2
:100E100084899589A689B789892B8A2B8B2BA9F37D
:100E200086818F708093E9008091E80082FFEDCF8A
:100E30009091F3008091F200892B79F08091F1007C
:100E400090E03091F3002091F200232B29F42091BF
:100E5000E8002B772093E80008958FEF9FEFF1CF04
:100E6000FC01848595850E9400078F3F980711F447
:100E70008EEF9FEF0895CF93DF93EC018C859D85D6
:100E80000E9400078F3F980719F0DF91CF910895D6
:100E90008091BB01811539F08C859D850E94BF062C
:100EA0000E94D705EBCF8EEF9FEFEFCF0F931F93ED
:100EB000CF93DF93CDB7DEB728970FB6F894DEBF98
:100EC0000FBECDBF8C018091BB01843059F5F80174
:100ED00084899589A689B789892B8A2B8B2B11F157
:100EE00083858F708093E90088E0EBE1F1E0DE011B
:100EF000119601900D928A95E1F740E050E068E08C
:100F000070E0CE0101960E942D0940E050E062E0C1
:100F100070E0C80142960E942D098091E8008E770A
:100F20008093E80028960FB6F894DEBF0FBECDBFC1
:100F3000DF91CF911F910F910895CF93DF939C0183
:100F4000EB019EE0E3E2F1E0DB0101900D929A9566
:100F5000E1F73D872C87DF91CF910895CF93DF9301
:100F60009C01EB019EE0E1E3F1E0DB0101900D92D9
:100F70009A95E1F73D872C87DF91CF9108950895E9
:100F8000CF93DF93EC018091E80083FF13C02881A9
:100F90008091C0019091C1012817190659F48091E0
:100FA000BD01823209F487C040F4803209F44FC099
:100FB0008132B9F0DF91CF9108958332D9F78091D2
:100FC000BC018132B9F78091E800877F8093E80007
:100FD0000E9457106091BE01CE01DF91CF910C9419
:100FE000BF078091BC01813A29F78091E800877F93
:100FF0008093E8008091E80080FFFCCF8C899D8978
:10100000AE89BF898093F100492F5A2F6B2F772724
:101010004093F100AD01662777274093F1008B2FB5
:101020009927AA27BB278093F100888D8093F10030
:10103000898D8093F1008A8D8093F1008091E80082
:101040008E778093E800DF91CF910C9457108091B8
:10105000BC01813209F0AECF8091E800877F809398
:10106000E8008091E80082FF21C03091F1002091DA
:10107000F1009091F1008091F1003C8B2D8B9E8BC3
:101080008F8B8091F100888F8091F100898F809102
:10109000F1008A8F8091E8008B778093E8000E94AE
:1010A0005710CE01DF91CF910C94BF078091BB0107
:1010B0008111D7CF7FCF8091BC01813209F07ACFE7
:1010C0008091E800877F8093E8000E94571080910C
:1010D000BE019091BF01998B888BCE01DF91CF919A
:1010E0000C94BF079C01DA01832F99278230910568
:1010F00029F18330910549F0019791F482E190E064
:1011000026E231E02D933C930895C90199272130BF
:1011100061F08230910579F0E4EEF0E0892B39F04E
:1011200080E090E020E030E0EDCFEAECF0E0849168
:1011300090E09F01E7CFECEAF0E0F9CF8EE390E09A
:1011400028EE30E0DFCFCF92DF92FF920F931F9314
:10115000CF93DF93EC018B010E947610F82E811162
:1011600021C00115110529F0F80180819181C81B6A
:10117000D90BC12CD12C2097A9F08091E80085FDD6
:1011800020C08091E8008B778093E800011511055D
:1011900091F0F801808191818C0D9D1D9183808358
:1011A00085E0F82E8F2DDF91CF911F910F91FF9049
:1011B000DF90CF9008950E9476108115F1F2F82EFD
:1011C000F1CF8091F1002197FFEFCF1ADF0AD3CF43
:1011D000CF92DF92FF920F931F93CF93DF93EC0197
:1011E0008B010E947610F82E811121C00115110586
:1011F00029F0F80180819181C81BD90BC12CD12C19
:101200002097A9F08091E80085FD20C08091E8003A
:101210008E778093E8000115110591F0F801808127
:1012200091818C0D9D1D9183808385E0F82E8F2DFB
:10123000DF91CF911F910F91FF90DF90CF90089594
:101240000E9476108115F1F2F82EF1CF1092F10084
:101250002197FFEFCF1ADF0AD3CFAF92BF92CF9281
:10126000DF92FF920F931F93CF93DF936C01EB01FB
:101270008A010E947610F82E811123C001151105F4
:1012800039F0F80180819181C81BD90BC80ED91E95
:10129000A12CB12C2097A9F08091E80085FD22C0F7
:1012A0008091E8008E778093E80001151105A1F088
:1012B000F801808191818A0D9B1D9183808385E057
:1012C000F82E8F2DDF91CF911F910F91FF90DF901E
:1012D000CF90BF90AF9008950E9476108115E1F2F3
:1012E000F82EEFCFF60181916F018093F1002197E5
:1012F000FFEFAF1ABF0ACECFAF92BF92DF92EF924D
:10130000FF920F931F93CF93DF93EC018B017A0130
:101310000E947610D82E811128C0C8010197C80FED
:10132000D91FE114F10439F0F70180819181081B84
:10133000190BC81BD90BA12CB12C01151105A9F053
:101340008091E80085FD22C08091E8008E7780932F
:10135000E800E114F104A1F0F701808191818A0D88
:101360009B1D9183808385E0D82E8D2DDF91CF91B9
:101370001F910F91FF90EF90DF90BF90AF90089575
:101380000E9476108115E1F2D82EEFCF88818093EC
:10139000F100219701501109FFEFAF1ABF0ACDCF1D
:1013A000AF92BF92CF92DF92FF920F931F93CF9392
:1013B000DF936C01EB018A010E947610F82E8111F7
:1013C00023C00115110539F0F80180819181C81BF6
:1013D000D90BC80ED91EA12CB12C2097A9F0809151
:1013E000E80085FD22C08091E8008B778093E800BB
:1013F00001151105A1F0F801808191818A0D9B1DD5
:101400009183808385E0F82E8F2DDF91CF911F91FE
:101410000F91FF90DF90CF90BF90AF9008950E9402
:1014200076108115E1F2F82EEFCF8091F100F601F0
:1014300081936F012197FFEFAF1ABF0ACECFAF9212
:10144000BF92DF92EF92FF920F931F93CF93DF93A0
:10145000EC018B017A010E947610D82E811128C0F0
:10146000C8010197C80FD91FE114F10439F0F70141
:1014700080819181081B190BC81BD90BA12CB12CA1
:1014800001151105A9F08091E80085FD22C0809129
:10149000E8008B778093E800E114F104A1F0F701F4
:1014A000808191818A0D9B1D9183808385E0D82E58
:1014B0008D2DDF91CF911F910F91FF90EF90DF90D5
:1014C000BF90AF9008950E9476108115E1F2D82E5A
:1014D000EFCF8091F1008883219701501109FFEF30
:1014E000AF1ABF0ACDCFAF92BF92DF92EF92FF92B9
:1014F0000F931F93CF93DF938C01EB017A010E942E
:101500007610D82E811123C0E114F10439F0F701CF
:1015100080819181C81BD90B080F191FA12CB12CF8
:101520002097A9F08091E80085FD22C08091E80015
:101530008E778093E800E114F104A1F0F701808137
:1015400091818A0D9B1D9183808385E0D82E8D2DFE
:10155000DF91CF911F910F91FF90EF90DF90BF909F
:10156000AF9008950E9476108115E1F2D82EEFCF4A
:10157000F80184918093F1000F5F1F4F2197FFEFD7
:10158000AF1ABF0ACDCFAF92BF92DF92EF92FF9218
:101590000F931F93CF93DF93EC018B017A010E948D
:1015A0007610D82E811128C0C8010197C80FD91F05
:1015B000E114F10439F0F70180819181081B190BC6
:1015C000C81BD90BA12CB12C01151105A9F08091D4
:1015D000E80085FD22C08091E8008E778093E800C6
:1015E000E114F104A1F0F701808191818A0D9B1D26
:1015F0009183808385E0D82E8D2DDF91CF911F912F
:101600000F91FF90EF90DF90BF90AF9008950E94F0
:1016100076108115E1F2D82EEFCFFE0184918093F0
:10162000F100219701501109FFEFAF1ABF0ACCCF8B
:10163000AF92BF92DF92EF92FF920F931F93CF93DF
:10164000DF938C01EB017A010E947610D82E811174
:1016500023C0E114F10439F0F70180819181C81BA6
:10166000D90B080F191FA12CB12C2097A9F080913C
:10167000E80085FD22C08091E8008E778093E80025
:10168000E114F104A1F0F701808191818A0D9B1D85
:101690009183808385E0D82E8D2DDF91CF911F918E
:1016A0000F91FF90EF90DF90BF90AF9008950E9450
:1016B00076108115E1F2D82EEFCFC8010E94E21416
:1016C0008093F1000F5F1F4F2197FFEFAF1ABF0A02
:1016D000CCCFAF92BF92DF92EF92FF920F931F9306
:1016E000CF93DF93EC018B017A010E947610D82E04
:1016F000811128C0C8010197C80FD91FE114F10456
:1017000039F0F70180819181081B190BC81BD90B97
:10171000A12CB12C01151105A9F08091E80085FDDF
:1017200022C08091E8008E778093E800E114F104F4
:10173000A1F0F701808191818A0D9B1D91838083A7
:1017400085E0D82E8D2DDF91CF911F910F91FF90C5
:10175000EF90DF90BF90AF9008950E9476108115B2
:10176000E1F2D82EEFCFCE010E94E2148093F10077
:10177000219701501109FFEFAF1ABF0ACBCFAF92EB
:10178000BF92DF92EF92FF920F931F93CF93DF935D
:101790008C01EB017A010E947610D82E811123C0B2
:1017A000E114F10439F0F70180819181C81BD90B54
:1017B000080F191FA12CB12C2097A9F08091E800E7
:1017C00085FD22C08091E8008B778093E800E114CA
:1017D000F104A1F0F701808191818A0D9B1D918315
:1017E000808385E0D82E8D2DDF91CF911F910F91B1
:1017F000FF90EF90DF90BF90AF9008950E94761019
:101800008115E1F2D82EEFCF6091F100C8010E945E
:10181000EA140F5F1F4F2197FFEFAF1ABF0ACCCF1B
:10182000AF92BF92DF92EF92FF920F931F93CF93ED
:10183000DF93EC018B017A010E947610D82E811182
:1018400028C0C8010197C80FD91FE114F10439F06D
:10185000F70180819181081B190BC81BD90BA12CA2
:10186000B12C01151105A9F08091E80085FD22C079
:101870008091E8008B778093E800E114F104A1F0F7
:10188000F701808191818A0D9B1D9183808385E082
:10189000D82E8D2DDF91CF911F910F91FF90EF905A
:1018A000DF90BF90AF9008950E9476108115E1F20D
:1018B000D82EEFCF6091F100CE010E94EA1421975B
:1018C00001501109FFEFAF1ABF0ACBCFFC019B01FA
:1018D0008091C2019091C3018617970718F0672B7A
:1018E00061F0C90140E0009771F441110CC0809192
:1018F000E80082FF35C080E008958091E8008E778F
:101900008093E800EECF2091BB012115A9F125308D
:10191000A9F12091E80023FD2DC02091E80022FDCF
:10192000E6CF2091E80020FFDECF3091F300209138
:10193000F200009719F02830310558F041E02830C6
:10194000310509F040E02091E8002E772093E8006F
:10195000CACF41914093F10001972F5F3F4FE9CFEC
:101960008091BB01811541F0853041F08091E80004
:1019700083FFBDCF81E0089582E0089583E008955C
:10198000AB01FB013197E80FF91F2091C2013091A3
:10199000C3012617370718F0672B69F09A0180E01A
:1019A0002115310571F481110CC08091E80082FF8E
:1019B00039C080E008958091E8008E778093E80038
:1019C000EDCF9091BB019115C9F19530C9F190917E
:1019D000E80093FD31C09091E80092FDE6CF909130
:1019E000E80090FFDDCF8091F3004091F200582F86
:1019F0002115310519F04830510558F081E0483083
:101A0000510509F080E09091E8009E779093E800FE
:101A1000C7CF80818093F1003197215031094F5F0A
:101A20005F4FE6CF8091BB01811541F0853041F0D9
:101A30008091E80083FFB9CF81E0089582E00895A6
:101A400083E00895FC01CB01009749F58091E800FF
:101A50008B778093E8008091E80080FF26C080E0CB
:101A60000895253011F483E008952091E80023FDC6
:101A700023C02091E80022FF12C03091F300209192
:101A8000F200232B29F02091F10021930197A9F76F
:101A90002091E8002B772093E8000097E1F2209155
:101AA000BB012111DECF82E008958091BB01811539
:101AB000D1F3853081F6D7CF81E008959C01CB0129
:101AC000009769F0AB0141505109240F351F009771
:101AD00059F04091BB0141110DC082E00895809101
:101AE000E8008B778093E8008091E80080FF22C0B7
:101AF00080E00895453011F483E008954091E800B6
:101B000043FD1FC04091E80042FFE3CF5091F30036
:101B10004091F200452B41F04091F100F9014083E2
:101B200021503109019791F74091E8004B7740939C
:101B3000E800CDCF8091BB01811579F28530A1F607
:101B4000DBCF81E00895FC019B018091C20190915F
:101B5000C3018617970718F0672B61F0C90140E0B1
:101B6000009771F441110CC08091E80082FF36C0EB
:101B700080E008958091E8008E778093E800EECFB2
:101B80002091BB012115B1F12530B1F12091E80080
:101B900023FD2EC02091E80022FDE6CF2091E80031
:101BA00020FFDECF3091F3002091F200009719F072
:101BB0002830310558F041E02830310509F040E087
:101BC0002091E8002E772093E800CACF44914093FB
:101BD000F100319601972F5F3F4FE8CF8091BB0115
:101BE000811541F0853041F08091E80083FFBCCF42
:101BF00081E0089582E0089583E00895AB01FB0140
:101C00003197E80FF91F2091C2013091C3012617C7
:101C1000370718F0672B69F09A0180E0211531052C
:101C200071F481110CC08091E80082FF39C080E01E
:101C300008958091E8008E778093E800EDCF909131
:101C4000BB019115C9F19530C9F19091E80093FD60
:101C500031C09091E80092FDE6CF9091E80090FFAE
:101C6000DDCF8091F3004091F200582F211531050E
:101C700019F04830510558F081E04830510509F01D
:101C800080E09091E8009E779093E800C7CF849120
:101C90008093F1003197215031094F5F5F4FE6CFBC
:101CA0008091BB01811541F0853041F08091E800C1
:101CB00083FFB9CF81E0089582E0089583E008951D
:101CC000EF92FF920F931F93CF93DF937C01CB0191
:101CD000C091C201D091C301C617D70718F0009771
:101CE00091F0EC0180E02097A1F4811112C0809165
:101CF000E80082FF41C080E0DF91CF911F910F91FA
:101D0000FF90EF9008952091E8002E772093E8004F
:101D1000E8CF9091BB019115D9F19530D9F190910F
:101D2000E80093FD33C09091E80092FDE0CF9091E0
:101D3000E80090FFD8CF8091F3000091F200182FB7
:101D4000209719F00830110558F081E0083011058E
:101D500009F080E09091E8009E779093E800C3CF6F
:101D6000C7010E94E2148093F1008FEFE81AF80A8D
:101D700021970F5F1F4FE4CF8091BB01811541F088
:101D8000853041F08091E80083FFB1CF81E0B4CF8E
:101D900082E0B2CF83E0B0CFEF92FF920F931F9318
:101DA000CF93DF939B017B0141E0E41AF108E80E39
:101DB000F91EC091C201D091C301C617D70718F010
:101DC000672B91F0E90180E02097A1F4811112C006
:101DD0008091E80082FF41C080E0DF91CF911F91A8
:101DE0000F91FF90EF9008958091E8008E77809397
:101DF000E800E8CF9091BB019115D9F19530D9F168
:101E00009091E80093FD33C09091E80092FDE0CFFF
:101E10009091E80090FFD8CF8091F3000091F200FC
:101E2000182F209719F00830110558F081E008307C
:101E3000110509F080E09091E8009E779093E8000A
:101E4000C3CFC7010E94E2148093F10081E0E81A39
:101E5000F10821970F5F1F4FE4CF8091BB018115DF
:101E600041F0853041F08091E80083FFB1CF81E0FF
:101E7000B4CF82E0B2CF83E0B0CF0F931F93CF9364
:101E8000DF938C01EB01209769F58091E8008B7757
:101E90008093E8008091E80080FF2EC080E027C09A
:101EA000853011F483E023C08091E80083FD2BC0CE
:101EB0008091E80082FF16C09091F3008091F200BB
:101EC000892B49F06091F100C8010E94EA140F5F6C
:101ED0001F4F219789F78091E8008B778093E80066
:101EE0002097C1F28091BB018111DACF82E0DF91AE
:101EF000CF911F910F9108958091BB018115B1F38E
:101F0000853041F6CFCF81E0F2CF0F931F93CF936F
:101F1000DF938C01EB01209781F0CB010197080F33
:101F2000191F209779F08091BB01811111C082E0C7
:101F3000DF91CF911F910F9108958091E8008B77E9
:101F40008093E8008091E80080FF23C080E0F0CF1C
:101F5000853011F483E0ECCF8091E80083FD20C050
:101F60008091E80082FFDFCF9091F3008091F20032
:101F7000892B49F06091F100C8010E94EA140150D8
:101F80001109219789F78091E8008B778093E80009
:101F9000C8CF8091BB01811551F2853099F6DACF17
:101FA00081E0C6CF982F973028F08F708093E9009A
:101FB00081E008959093E900242F762F50E0981740
:101FC00031F07091EC002091ED005091F00021FD76
:101FD00002C09F5FE8CF3091EB003E7F3093EB0073
:101FE0003091ED003D7F3093ED003091EB0031609A
:101FF0003093EB007093EC002093ED005093F000D1
:102000002091EE0027FDE5CF80E008950F931F9308
:10201000CF93DF93162FEC0100E0011302C081E0A3
:102020000BC09881911103C00F5F2596F6CF892FC1
:102030008F70873030F080E0DF91CF911F910F914A
:1020400008952C8156E0223008F452E069817A81AB
:1020500028E030E040E02617370788F04295407FBF
:10206000452B6B816295660F660F607C97FB992705
:1020700090F9692B0E94D20F8111D6CFDCCF4F5F30
:10208000220F331FE8CF1092F40080E08093E90024
:102090001092F0001092E8001092ED009091EB0089
:1020A0009E7F9093EB008F5F873081F7089580913A
:1020B000BC0187FF13C08091E80082FF06C08091B9
:1020C000E8008B778093E80008958091BB0181112F
:1020D000F2CF08958091BB018115D9F38091E8007A
:1020E00080FFF8CF8091E8008E77ECCF2091E4005C
:1020F0003091E50095E6A9012091EC00822F8170D6
:1021000020FF06C08091E80080FF06C080E00895AF
:102110002091E80022FD1AC08091BB01811589F051
:10212000853089F08091EB0085FD0FC02091E4009F
:102130003091E50042175307F9F29A95E1F684E0F1
:10214000089582E0089583E0089581E0089550584D
:10215000BB27AA270E94BF100C9454110E9446115D
:1021600038F00E944D1120F039F49F3F19F426F405
:102170000C9443110EF4E095E7FB0C943D11E92F0C
:102180000E94651158F3BA17620773078407950711
:1021900020F079F4A6F50C9487110EF4E0950B2E3F
:1021A000BA2FA02D0B01B90190010C01CA01A001A9
:1021B0001124FF27591B99F0593F50F4503E68F104
:1021C0001A16F040A22F232F342F4427585FF3CF45
:1021D000469537952795A795F0405395C9F77EF416
:1021E0001F16BA0B620B730B840BBAF09150A1F05F
:1021F000FF0FBB1F661F771F881FC2F70EC0BA0FE5
:10220000621F731F841F48F4879577956795B7956C
:10221000F7959E3F08F0B0CF9395880F08F0992767
:10222000EE0F9795879508950E94191108F481E0A3
:102230000895990F0008550FAA0BE0E8FEEF161657
:102240001706E807F907C0F012161306E407F507AA
:1022500098F0621B730B840B950B39F40A2661F01E
:10226000232B242B252B21F408950A2609F4A140C1
:10227000A6958FEF811D811D089597F99F6780E8CE
:1022800070E060E008959FEF80EC089500240A94C8
:102290001616170618060906089500240A94121641
:1022A0001306140605060895092E0394000C11F474
:1022B000882352F0BB0F40F4BF2B11F460FF04C021
:1022C0006F5F7F4F8F4F9F4F089557FD9058440F7A
:1022D000551F59F05F3F71F04795880F97FB991F85
:1022E00061F09F3F79F08795089512161306140642
:1022F000551FF2CF4695F1DF08C0161617061806CF
:10230000991FF1CF86957105610508940895E894A9
:10231000BB2766277727CB0197F908950E941911EB
:1023200008F48FEF08950E94A6110C9454110E9496
:10233000461138F00E944D1120F0952311F00C94B5
:102340003D110C94431111240C9488110E946511C5
:1023500070F3959FC1F3950F50E0551F629FF001F8
:10236000729FBB27F00DB11D639FAA27F00DB11D11
:10237000AA1F649F6627B00DA11D661F829F22279A
:10238000B00DA11D621F739FB00DA11D621F839F21
:10239000A00D611D221F749F3327A00D611D231FF7
:1023A000849F600D211D822F762F6A2F11249F5745
:1023B00050409AF0F1F088234AF0EE0FFF1FBB1F48
:1023C000661F771F881F91505040A9F79E3F510507
:1023D00080F00C943D110C9488115F3FE4F3983E1B
:1023E000D4F3869577956795B795F795E7959F5FB1
:1023F000C1F7FE2B880F911D9695879597F9089543
:10240000052E97FB1EF400940E94171257FD07D06B
:102410000E941F1207FC03D04EF40C941712509523
:102420004095309521953F4F4F4F5F4F08959095C0
:102430008095709561957F4F8F4F9F4F0895A1E2D2
:102440001A2EAA1BBB1BFD010DC0AA1FBB1FEE1F2E
:10245000FF1FA217B307E407F50720F0A21BB30B79
:10246000E40BF50B661F771F881F991F1A9469F7F5
:1024700060957095809590959B01AC01BD01CF0151
:102480000895A0E0B0E0E7E4F2E10C940C15AE0191
:10249000475F5F4F6F8178858D819E810E945312C7
:1024A000E2E00C942815ABE0B0E0E9E5F2E10C9431
:1024B000FF146C017B018A01FC0117821682838163
:1024C00081FFD9C19AE0592EF6012381F70123FD3E
:1024D000859123FF81917F01811509F41FC1853208
:1024E00039F423FD959123FF91917F01953229F4D1
:1024F000B60190E00E945414E7CF30E0912C612C9B
:10250000712CF0E27F1640F59B32D9F058F49032EE
:10251000D1F09332F1F09E3299F576FCFFC06894C9
:1025200076F806C09D3291F09033C1F4689470F84B
:10253000F70123FD959123FF91917F019111E1CF47
:1025400029C0689471F8689472F8F2CF689473F8AF
:10255000EFCF689474F8ECCF77FC1CC080ED890F46
:102560008A30C8F676FE05C0959C800D1124982E01
:10257000DFCF659C800D1124682E689475F8D8CF44
:102580009C3619F4689477F8D3CF9C3409F44BC087
:10259000983671F2892F8F7D8554833008F445C0B9
:1025A000933609F466C0933709F469C0933509F48A
:1025B00075C0943619F0993609F09FC0F80177FE7E
:1025C00095C061917191819191918F01272D2F7605
:1025D000822E97FF09C090958095709561957F4FE9
:1025E0008F4F9F4F689487F82AE030E0AE014F5F2D
:1025F0005F4F5A010E9484148A19A82E86FEC4C017
:10260000882D8E7FA91408F0BEC084FE11C182FC03
:1026100005C1F82DFE7E8F2EB92C882D8678811568
:1026200009F4BFC000C131E083CF3115F9F0085F74
:102630001F4F8FE3898388248394912CAE014F5FD1
:102640005F4F5A01E89477F873FC03C08614910435
:10265000B0F181149104D1F5611409F435CFB601BC
:1026600080E290E00E9454146A94F6CF0C5F1F4FF2
:10267000E0CFF801808189830E5F1F4FDCCFF80126
:10268000A190B1908F01692D70E076FC02C06FEFD0
:102690007FEFC5010E9449144C01D4CFF801A190ED
:1026A000B1908F01692D70E076FC02C06FEF7FEF73
:1026B000C5010E943E144C01689477F8C5CFB6015D
:1026C00080E290E00E9454146A94C0CFF50177FC38
:1026D000859177FE81915F01B60190E00E945414CC
:1026E00061106A94F1E08F1A9108B3CF61917191F2
:1026F000072E000C880B990B68CF872CE89484F880
:102700002AE030E0953739F1572D597F852E9037E3
:1027100099F058F49835A9F09F36D9F0F6018681E2
:1027200097812B96EFE00C941B159837B9F774FC42
:1027300005C020E130E00FC0689484F8689482F806
:10274000F8CF74FE03C0872D8660882E20E132E02A
:1027500002C028E030E0F80187FE10C0619171915D
:10276000819191918F01FE0131965F01AF010E942D
:1027700084148A19A82EE89487F840CF619171914A
:1027800080E090E0EFCF882EBA2C84FE46CFFE0189
:10279000EA0DF11D8081803309F043C0282D297E88
:1027A000822E83FC0EC080FE4FC09A2CB61418F403
:1027B000960C9B18B62C862D8B196B1408F480E0B0
:1027C000B80EB61408F042C06B1884FE41C0B601C2
:1027D00080E390E00E94541482FE09C088E590E0F6
:1027E00081FC02C088E790E0B6010E945414A9144D
:1027F000D8F1AA94B12C4FEFA41AB40ACE010196D5
:102800004C01A80EB91EF50182915F01B60190E05E
:102810000E9454148A149B04B1F71ECFB92C882E41
:10282000B6CF82FC02C0B394BCCFB394B394B9CFFB
:10283000B92C882EF2CEB60180E290E00E945414AA
:1028400073947614C0F3B7CF7B2CFBCF612CBDCF34
:10285000882D8678811559F280E281FC8BE287FC15
:102860008DE2B60190E0C1CFB60180E390E00E9416
:1028700054149A94BCCF8FEF9FEF53CFFC01059077
:10288000615070400110D8F7809590958E0F9F1F72
:102890000895FC016150704001900110D8F78095B7
:1028A00090958E0F9F1F08950F931F93CF93DF93E3
:1028B000182F092FEB018B8181FD09C01FEF0FEF4E
:1028C000812F902FDF91CF911F910F91089582FF5B
:1028D00014C02E813F818C819D81281739073CF4DB
:1028E000E881F981CF0101969983888310838E81D5
:1028F0009F8101969F838E83E3CFE885F985812FA1
:102900000995892BA1F3DACFFA01AA27283051F1D2
:10291000203181F1E8946F936E7F6E5F7F4F8F4F10
:102920009F4FAF4FB1E03ED0B4E03CD0670F781F6F
:10293000891F9A1FA11D680F791F8A1F911DA11D54
:102940006A0F711D811D911DA11D20D009F468948D
:102950003F912AE0269F11243019305D3193DEF635
:10296000CF010895462F4770405D4193B3E00FD0EB
:10297000C9F7F6CF462F4F70405D4A3318F0495DD6
:1029800031FD4052419302D0A9F7EACFB4E0A695B9
:102990009795879577956795BA95C9F700976105DB
:1029A000710508959B01AC010A2E06945795479531
:1029B00037952795BA95C9F7620F731F841F951F26
:1029C000A01D0895F999FECF92BD81BDF89A99276F
:1029D00080B50895262FF999FECF92BD81BDF89A52
:1029E000019700B4021639F01FBA20BD0FB6F89453
:1029F000FA9AF99A0FBE08952F923F924F925F92E2
:102A00006F927F928F929F92AF92BF92CF92DF92FE
:102A1000EF92FF920F931F93CF93DF93CDB7DEB763
:102A2000CA1BDB0B0FB6F894DEBF0FBECDBF0994F7
:102A30002A88398848885F846E847D848C849B844E
:102A4000AA84B984C884DF80EE80FD800C811B815C
:102A5000AA81B981CE0FD11D0FB6F894DEBF0FBE8B
:0A2A6000CDBFED010895F894FFCFFB
:102A6A000083100000010410000001820800000128
:102A7A000000000000000000000000A1200000008B
:102A8A00000200000000030000000080063007007A
:102A9A0000000000030000000080063B070000451C
:102AAA0052523A206379636C6573206E656761746C
:102ABA006966732028256C6429202D207665726941
:102ACA0066696572207369676E616C20494350318B
:102ADA000D0A004379636C65733A20256C642020E3
:102AEA007C2020467265713A20256C642E2530338D
:0A2AFA006C64206B487A0D0A00009E
:00000001FF
